{
  "transactions": [
    {
      "hash": "0x9765d4b576e1006affdfd0343a96a8171b77c96d11c793f4a8dcec4eba77c6fb",
      "transactionType": "CREATE",
      "contractName": "UMIPVault",
      "contractAddress": "0x555f5ea52732adef6d92db42274be8144b8a3cf4",
      "function": null,
      "arguments": [
        "0x3253a335E7bFfB4790Aa4C25C4250d206E9b9773"
      ],
      "transaction": {
        "from": "0xb53d98c60f327a61aa34c29762efd4efd47ba756",
        "gas": "0x18cdc0",
        "value": "0x0",
        "input": "0x60a060405234801561000f575f80fd5b5060405161161138038061161183398101604081905261002e9161003f565b6001600160a01b031660805261006c565b5f6020828403121561004f575f80fd5b81516001600160a01b0381168114610065575f80fd5b9392505050565b60805161156a6100a75f395f81816103ad015281816105f801528181610d7a01528181610fd80152818161102501526110d7015261156a5ff3fe608060405260043610610126575f3560e01c80637145c9a7116100a8578063b2016bd41161006d578063b2016bd41461039c578063b6b55f25146103cf578063b6f7132f146103ee578063c6514b3114610471578063da32f7f514610490578063e07bec11146104af575f80fd5b80637145c9a7146102d45780637dc739c5146102ff578063813756491461032a578063a126d6011461035e578063aa80e8a214610371575f80fd5b806350a03e02116100ee57806350a03e021461021b57806350e9dd39146102465780635e1b4d99146102655780636bbd8d9f146102965780636e602220146102a9575f80fd5b80630918eb141461012a57806326533220146101685780632e1a7d4d146101975780633adbb5af146101b85780634e52b48c146101e4575b5f80fd5b348015610135575f80fd5b50610155610144366004611282565b60066020525f908152604090205481565b6040519081526020015b60405180910390f35b348015610173575f80fd5b50610187610182366004611282565b6104ce565b604051901515815260200161015f565b3480156101a2575f80fd5b506101b66101b13660046112a2565b610545565b005b3480156101c3575f80fd5b506101d76101d23660046112b9565b610668565b60405161015f9190611315565b3480156101ef575f80fd5b50600754610203906001600160a01b031681565b6040516001600160a01b03909116815260200161015f565b348015610226575f80fd5b50610155610235366004611282565b60016020525f908152604090205481565b348015610251575f80fd5b506101b6610260366004611368565b61078b565b348015610270575f80fd5b5061028461027f3660046112b9565b61080f565b60405161015f969594939291906113a8565b6101556102a43660046113f7565b610870565b3480156102b4575f80fd5b506101556102c3366004611282565b60036020525f908152604090205481565b3480156102df575f80fd5b506101556102ee366004611282565b60026020525f908152604090205481565b34801561030a575f80fd5b50610155610319366004611282565b5f6020819052908152604090205481565b348015610335575f80fd5b5061020361034436600461142d565b600a6020525f90815260409020546001600160a01b031681565b6101b661036c3660046112a2565b610b33565b34801561037c575f80fd5b5061015561038b366004611282565b60046020525f908152604090205481565b3480156103a7575f80fd5b506102037f000000000000000000000000000000000000000000000000000000000000000081565b3480156103da575f80fd5b506101b66103e93660046112a2565b610d4d565b3480156103f9575f80fd5b50610449610408366004611282565b6001600160a01b03165f9081526020818152604080832054600183528184205460028452828520546003855283862054600490955292909420549094919291565b604080519586526020860194909452928401919091526060830152608082015260a00161015f565b34801561047c575f80fd5b50600954610203906001600160a01b031681565b34801561049b575f80fd5b506101b66104aa366004611446565b610e30565b3480156104ba575f80fd5b50600854610203906001600160a01b031681565b6001600160a01b0381165f90815260036020908152604080832054600283528184205460018452828520549385905291842054849391929161050f9161148b565b610519919061148b565b610523919061148b565b6001600160a01b039093165f9081526004602052604090205490921492915050565b805f036105655760405163162908e360e11b815260040160405180910390fd5b335f90815260208190526040902054808211156105a4576040516355da38d760e01b815260048101839052602481018290526044015b60405180910390fd5b335f90815260208190526040812080548492906105c290849061149e565b9091555050335f90815260046020526040812080548492906105e590849061149e565b9091555061061f90506001600160a01b037f0000000000000000000000000000000000000000000000000000000000000000163384610e8b565b335f8181526020818152604091829020548251868152918201527f92ccf450a286a957af52509bc1c9939d1a6a481783e142e41e2499f0bb66ebc6910160405180910390a25050565b6040805160c0810182525f8082526020808301829052828401829052606083018290526080830182905260a083018290526001600160a01b038616825260069052919091205482106106d05760405163f715480760e01b81526004810183905260240161059b565b6001600160a01b0383165f9081526005602052604090208054839081106106f9576106f96114b1565b5f91825260209091206040805160c081019091526005909202018054829060ff16600281111561072b5761072b6112e1565b600281111561073c5761073c6112e1565b8152815461010090046001600160a01b0316602082015260018201546040820152600282015460608201526003820154608082015260049091015460ff16151560a09091015290505b92915050565b600780546001600160a01b038581166001600160a01b0319928316811790935560088054868316908416811790915560098054928616929093168217909255604080519384526020840192909252908201527f0cdcdc7fd7c6c58f52b3a616aacfdfce274b67e4910565452ca4cb368d06ce769060600160405180910390a1505050565b6005602052815f5260405f208181548110610828575f80fd5b5f9182526020909120600590910201805460018201546002830154600384015460049094015460ff80851697506101009094046001600160a01b031695509193909290911686565b335f90815260208190526040812054808511156108aa576040516355da38d760e01b8152600481018690526024810182905260440161059b565b5f6108b487610ec5565b90506001600160a01b0381166108df578660405163bb94e98d60e01b815260040161059b91906114c5565b335f90815260208190526040812080548892906108fd90849061149e565b909155505f9050876002811115610916576109166112e1565b0361094457335f908152600160205260408120805488929061093990849061148b565b9091555061099f9050565b6001876002811115610958576109586112e1565b0361097b57335f908152600260205260408120805488929061093990849061148b565b335f908152600360205260408120805488929061099990849061148b565b90915550505b5f6109a988610f2f565b90506109b88282898989610fcb565b335f90815260066020908152604080832054600590925291829020825160c0810190935290955090808a60028111156109f3576109f36112e1565b81526001600160a01b038416602080830191909152604082018b9052606082018a9052426080830152600160a0909201829052835480830185555f948552932082516005909402018054929390929091839160ff191690836002811115610a5c57610a5c6112e1565b02179055506020828101518254610100600160a81b0319166101006001600160a01b03909216919091021782556040808401516001840155606084015160028401556080840151600384015560a0909301516004909201805460ff191692151592909217909155335f9081526006909152908120805491610adc836114d3565b9190505550336001600160a01b03167f76d4c4299ec8674cb0b41e26a1eef365b57f392bcf290b0801ae066db9972c6789868a85604051610b2094939291906114eb565b60405180910390a2505050949350505050565b335f908152600660205260409020548110610b645760405163f715480760e01b81526004810182905260240161059b565b335f908152600560205260408120805483908110610b8457610b846114b1565b5f9182526020909120600590910201600481015490915060ff16610bbe576040516335591c0760e11b81526004810183905260240161059b565b80545f90610bce9060ff16610ec5565b90506001600160a01b038116610bfd57815460405163bb94e98d60e01b815261059b9160ff16906004016114c5565b610c2281835f0160019054906101000a90046001600160a01b031684600201546110b8565b60018201545f835460ff166002811115610c3e57610c3e6112e1565b03610c7457600180840154335f90815260209290925260408220805491929091610c6990849061149e565b90915550610cdd9050565b6001835460ff166002811115610c8c57610c8c6112e1565b03610cb4576001830154335f9081526002602052604081208054909190610c6990849061149e565b6001830154335f9081526003602052604081208054909190610cd790849061149e565b90915550505b335f9081526020819052604081208054839290610cfb90849061148b565b909155505060048301805460ff19169055604080518581526020810183905233917fc8469f8998427d0814b7efed804617bd8c43dfdfb3c6780d28a03ecf361fb698910160405180910390a250505050565b805f03610d6d5760405163162908e360e11b815260040160405180910390fd5b610da26001600160a01b037f000000000000000000000000000000000000000000000000000000000000000016333084611167565b335f9081526020819052604081208054839290610dc090849061148b565b9091555050335f9081526004602052604081208054839290610de390849061148b565b9091555050335f8181526020818152604091829020548251858152918201527f73a19dd210f1a7f902193214c0ee91dd35ee5b4d920cba8d519eca65a7b488ca910160405180910390a250565b80600a5f846002811115610e4657610e466112e1565b6002811115610e5757610e576112e1565b81526020019081526020015f205f6101000a8154816001600160a01b0302191690836001600160a01b031602179055505050565b610e98838383600161119d565b610ec057604051635274afe760e01b81526001600160a01b038416600482015260240161059b565b505050565b5f80826002811115610ed957610ed96112e1565b03610eef5750506007546001600160a01b031690565b6001826002811115610f0357610f036112e1565b03610f195750506008546001600160a01b031690565b50506009546001600160a01b031690565b919050565b5f80600a5f846002811115610f4657610f466112e1565b6002811115610f5757610f576112e1565b815260208101919091526040015f20546001600160a01b031690508015610f7e5792915050565b5f836002811115610f9157610f916112e1565b03610f9f5750600192915050565b6001836002811115610fb357610fb36112e1565b03610fc15750600492915050565b5061010192915050565b610fff6001600160a01b037f0000000000000000000000000000000000000000000000000000000000000000168685610e8b565b6040516398ab5a5360e01b81526001600160a01b038581166004830152602482018590527f00000000000000000000000000000000000000000000000000000000000000008116604483015260648201849052608482018390523460a48301819052908716916398ab5a53919060c40160206040518083038185885af115801561108b573d5f803e3d5ffd5b50505050506040513d601f19601f820116820180604052508101906110b0919061151d565b505050505050565b604051630d89906160e31b81526001600160a01b0383811660048301527f000000000000000000000000000000000000000000000000000000000000000081166024830152604482018390525f6064830152346084830181905290851691636c4c8308919060a40160206040518083038185885af115801561113c573d5f803e3d5ffd5b50505050506040513d601f19601f82011682018060405250810190611161919061151d565b50505050565b6111758484848460016111ff565b61116157604051635274afe760e01b81526001600160a01b038516600482015260240161059b565b60405163a9059cbb60e01b5f8181526001600160a01b038616600452602485905291602083604481808b5af1925060015f511483166111f35783831516156111e7573d5f823e3d81fd5b5f873b113d1516831692505b60405250949350505050565b6040516323b872dd60e01b5f8181526001600160a01b038781166004528616602452604485905291602083606481808c5af1925060015f5114831661125b57838315161561124f573d5f823e3d81fd5b5f883b113d1516831692505b604052505f60605295945050505050565b80356001600160a01b0381168114610f2a575f80fd5b5f60208284031215611292575f80fd5b61129b8261126c565b9392505050565b5f602082840312156112b2575f80fd5b5035919050565b5f80604083850312156112ca575f80fd5b6112d38361126c565b946020939093013593505050565b634e487b7160e01b5f52602160045260245ffd5b6003811061131157634e487b7160e01b5f52602160045260245ffd5b9052565b5f60c0820190506113278284516112f5565b6020838101516001600160a01b03169083015260408084015190830152606080840151908301526080808401519083015260a0928301511515919092015290565b5f805f6060848603121561137a575f80fd5b6113838461126c565b92506113916020850161126c565b915061139f6040850161126c565b90509250925092565b60c081016113b682896112f5565b6001600160a01b03969096166020820152604081019490945260608401929092526080830152151560a090910152919050565b803560038110610f2a575f80fd5b5f805f806080858703121561140a575f80fd5b611413856113e9565b966020860135965060408601359560600135945092505050565b5f6020828403121561143d575f80fd5b61129b826113e9565b5f8060408385031215611457575f80fd5b611460836113e9565b915061146e6020840161126c565b90509250929050565b634e487b7160e01b5f52601160045260245ffd5b8082018082111561078557610785611477565b8181038181111561078557610785611477565b634e487b7160e01b5f52603260045260245ffd5b6020810161078582846112f5565b5f600182016114e4576114e4611477565b5060010190565b608081016114f982876112f5565b602082019490945260408101929092526001600160a01b0316606090910152919050565b5f6020828403121561152d575f80fd5b505191905056fea2646970667358221220df9d2fe894f67d05f3eb741aa2c363836754a83822782866bb99421691bc5b1f64736f6c634300081800330000000000000000000000003253a335e7bffb4790aa4c25c4250d206e9b9773",
        "nonce": "0x10",
        "chainId": "0x66eee"
      },
      "additionalContracts": [],
      "isFixedGasLimit": false
    },
    {
      "hash": "0x41e173318a7c2838257a2c1ee351fe9592d05564d83cb8d401878889ceb3eda4",
      "transactionType": "CALL",
      "contractName": "UMIPVault",
      "contractAddress": "0x555f5ea52732adef6d92db42274be8144b8a3cf4",
      "function": "setAdapters(address,address,address)",
      "arguments": [
        "0x148B975C477bdf6196670Fa09F9AA12C86F1Fe00",
        "0x0000000000000000000000000000000000000000",
        "0x0000000000000000000000000000000000000000"
      ],
      "transaction": {
        "from": "0xb53d98c60f327a61aa34c29762efd4efd47ba756",
        "to": "0x555f5ea52732adef6d92db42274be8144b8a3cf4",
        "gas": "0x6eea",
        "value": "0x0",
        "input": "0x50e9dd39000000000000000000000000148b975c477bdf6196670fa09f9aa12c86f1fe0000000000000000000000000000000000000000000000000000000000000000000000000000000000000000000000000000000000000000000000000000000000",
        "nonce": "0x11",
        "chainId": "0x66eee"
      },
      "additionalContracts": [],
      "isFixedGasLimit": false
    },
    {
      "hash": "0x368cddbdb530233c375f985238a4eadda5e2bca2a943475ca6fdcb91ceee11b7",
      "transactionType": "CALL",
      "contractName": "UMIPVault",
      "contractAddress": "0x555f5ea52732adef6d92db42274be8144b8a3cf4",
      "function": "setMarket(uint8,address)",
      "arguments": [
        "0",
        "0xb6fC4C9eB02C35A134044526C62bb15014Ac0Bcc"
      ],
      "transaction": {
        "from": "0xb53d98c60f327a61aa34c29762efd4efd47ba756",
        "to": "0x555f5ea52732adef6d92db42274be8144b8a3cf4",
        "gas": "0x6e53",
        "value": "0x0",
        "input": "0xda32f7f50000000000000000000000000000000000000000000000000000000000000000000000000000000000000000b6fc4c9eb02c35a134044526c62bb15014ac0bcc",
        "nonce": "0x12",
        "chainId": "0x66eee"
      },
      "additionalContracts": [],
      "isFixedGasLimit": false
    },
    {
      "hash": "0xb3fc8d8779f8d4d2dd283f7535300775be4f3793ae88639bd3136fd5fa7aead6",
      "transactionType": "CALL",
      "contractName": null,
      "contractAddress": "0x3253a335e7bffb4790aa4c25c4250d206e9b9773",
      "function": "mint(address,uint256)",
      "arguments": [
        "0xb53d98C60f327a61aa34C29762efD4EfD47BA756",
        "1000000000"
      ],
      "transaction": {
        "from": "0xb53d98c60f327a61aa34c29762efd4efd47ba756",
        "to": "0x3253a335e7bffb4790aa4c25c4250d206e9b9773",
        "gas": "0xaf0c",
        "value": "0x0",
        "input": "0x40c10f19000000000000000000000000b53d98c60f327a61aa34c29762efd4efd47ba756000000000000000000000000000000000000000000000000000000003b9aca00",
        "nonce": "0x13",
        "chainId": "0x66eee"
      },
      "additionalContracts": [],
      "isFixedGasLimit": false
    },
    {
      "hash": "0x8bba8997fbacfdc0d50d729750d11996aacc0fce23a2316510c4b1e6c24c8ac2",
      "transactionType": "CALL",
      "contractName": null,
      "contractAddress": "0x3253a335e7bffb4790aa4c25c4250d206e9b9773",
      "function": "approve(address,uint256)",
      "arguments": [
        "0x555f5Ea52732aDeF6D92DB42274be8144b8A3cf4",
        "1000000000"
      ],
      "transaction": {
        "from": "0xb53d98c60f327a61aa34c29762efd4efd47ba756",
        "to": "0x3253a335e7bffb4790aa4c25c4250d206e9b9773",
        "gas": "0xec38",
        "value": "0x0",
        "input": "0x095ea7b3000000000000000000000000555f5ea52732adef6d92db42274be8144b8a3cf4000000000000000000000000000000000000000000000000000000003b9aca00",
        "nonce": "0x14",
        "chainId": "0x66eee"
      },
      "additionalContracts": [],
      "isFixedGasLimit": false
    },
    {
      "hash": "0x4be89a6e2ac383dc33a4a70819120788da0adc2a4e42af5f8624576a54afa22c",
      "transactionType": "CALL",
      "contractName": "UMIPVault",
      "contractAddress": "0x555f5ea52732adef6d92db42274be8144b8a3cf4",
      "function": "deposit(uint256)",
      "arguments": [
        "1000000000"
      ],
      "transaction": {
        "from": "0xb53d98c60f327a61aa34c29762efd4efd47ba756",
        "to": "0x555f5ea52732adef6d92db42274be8144b8a3cf4",
        "gas": "0x6ca4",
        "value": "0x0",
        "input": "0xb6b55f25000000000000000000000000000000000000000000000000000000003b9aca00",
        "nonce": "0x15",
        "chainId": "0x66eee"
      },
      "additionalContracts": [],
      "isFixedGasLimit": false
    }
  ],
  "receipts": [
    {
      "status": "0x1",
      "cumulativeGasUsed": "0x12e971",
      "logs": [],
      "logsBloom": "0x00000000000000000000000000000000000000000000000000000000000000000000000000000000000000000000000000000000000000000000000000000000000000000000000000000000000000000000000000000000000000000000000000000000000000000000000000000000000000000000000000000000000000000000000000000000000000000000000000000000000000000000000000000000000000000000000000000000000000000000000000000000000000000000000000000000000000000000000000000000000000000000000000000000000000000000000000000000000000000000000000000000000000000000000000000000",
      "type": "0x2",
      "transactionHash": "0x9765d4b576e1006affdfd0343a96a8171b77c96d11c793f4a8dcec4eba77c6fb",
      "transactionIndex": "0x1",
      "blockHash": "0xce2267a75775851e7580e36dc587df93f697c27f73022ab2b17bfba4c724a1b8",
      "blockNumber": "0xe932122",
      "gasUsed": "0x12e971",
      "effectiveGasPrice": "0x1312d00",
      "from": "0xb53d98c60f327a61aa34c29762efd4efd47ba756",
      "to": null,
      "contractAddress": "0x555f5ea52732adef6d92db42274be8144b8a3cf4",
      "gasUsedForL1": "0x0",
      "l1BlockNumber": "0x9d6092",
      "timeboosted": false
    },
    {
      "status": "0x1",
      "cumulativeGasUsed": "0xc52f",
      "logs": [
        {
          "address": "0x555f5ea52732adef6d92db42274be8144b8a3cf4",
          "topics": [
            "0x0cdcdc7fd7c6c58f52b3a616aacfdfce274b67e4910565452ca4cb368d06ce76"
          ],
          "data": "0x000000000000000000000000148b975c477bdf6196670fa09f9aa12c86f1fe0000000000000000000000000000000000000000000000000000000000000000000000000000000000000000000000000000000000000000000000000000000000",
          "blockHash": "0xe6785fd7e3a0efbde572974528153f0010c31666b50c7c79f357be881f9a7938",
          "blockNumber": "0xe932128",
          "blockTimestamp": "0x699b0eca",
          "transactionHash": "0x41e173318a7c2838257a2c1ee351fe9592d05564d83cb8d401878889ceb3eda4",
          "transactionIndex": "0x1",
          "logIndex": "0x0",
          "removed": false
        }
      ],
      "logsBloom": "0x00000000000000000000000000000000000000000000010000000000000000000000000000000000000000800000000000000000000000000000000000000000000000000000000000000000000000000000000000000000000000000000000000080000000000000000000000000000000000000000000000000000000000000000000000000000000000000000000000000000000000000000000000000000000000000000000000000800000000000000000000000000000000000000000000000000000000000000000000000000000000000000000000000000000000000000000000000000020000000000000000000000000000000000000002000000",
      "type": "0x2",
      "transactionHash": "0x41e173318a7c2838257a2c1ee351fe9592d05564d83cb8d401878889ceb3eda4",
      "transactionIndex": "0x1",
      "blockHash": "0xe6785fd7e3a0efbde572974528153f0010c31666b50c7c79f357be881f9a7938",
      "blockNumber": "0xe932128",
      "gasUsed": "0xc52f",
      "effectiveGasPrice": "0x1312d00",
      "from": "0xb53d98c60f327a61aa34c29762efd4efd47ba756",
      "to": "0x555f5ea52732adef6d92db42274be8144b8a3cf4",
      "contractAddress": null,
      "gasUsedForL1": "0x0",
      "l1BlockNumber": "0x9d6092",
      "timeboosted": false
    },
    {
      "status": "0x1",
      "cumulativeGasUsed": "0xad58",
      "logs": [],
      "logsBloom": "0x00000000000000000000000000000000000000000000000000000000000000000000000000000000000000000000000000000000000000000000000000000000000000000000000000000000000000000000000000000000000000000000000000000000000000000000000000000000000000000000000000000000000000000000000000000000000000000000000000000000000000000000000000000000000000000000000000000000000000000000000000000000000000000000000000000000000000000000000000000000000000000000000000000000000000000000000000000000000000000000000000000000000000000000000000000000",
      "type": "0x2",
      "transactionHash": "0x368cddbdb530233c375f985238a4eadda5e2bca2a943475ca6fdcb91ceee11b7",
      "transactionIndex": "0x1",
      "blockHash": "0x72e202e2600f336be2f2e9d90cd51bb95e49d228bfec763e8f765a3d8476f825",
      "blockNumber": "0xe932130",
      "gasUsed": "0xad58",
      "effectiveGasPrice": "0x1312d00",
      "from": "0xb53d98c60f327a61aa34c29762efd4efd47ba756",
      "to": "0x555f5ea52732adef6d92db42274be8144b8a3cf4",
      "contractAddress": null,
      "gasUsedForL1": "0x0",
      "l1BlockNumber": "0x9d6092",
      "timeboosted": false
    },
    {
      "status": "0x1",
      "cumulativeGasUsed": "0x8541",
      "logs": [
        {
          "address": "0x3253a335e7bffb4790aa4c25c4250d206e9b9773",
          "topics": [
            "0xddf252ad1be2c89b69c2b068fc378daa952ba7f163c4a11628f55a4df523b3ef",
            "0x0000000000000000000000000000000000000000000000000000000000000000",
            "0x000000000000000000000000b53d98c60f327a61aa34c29762efd4efd47ba756"
          ],
          "data": "0x000000000000000000000000000000000000000000000000000000003b9aca00",
          "blockHash": "0x9a96128ca6db3a4b1266d75cbf78f4a11cb44b16ca055a7742905dccf4c1e2d2",
          "blockNumber": "0xe932133",
          "blockTimestamp": "0x699b0ecf",
          "transactionHash": "0xb3fc8d8779f8d4d2dd283f7535300775be4f3793ae88639bd3136fd5fa7aead6",
          "transactionIndex": "0x1",
          "logIndex": "0x0",
          "removed": false
        }
      ],
      "logsBloom": "0x00000000200000020000000000000000000000000000000000000000000000000000000000000000000008000000000000000000000000000000000000000000000000000000000000000008000000000000000000000000000000000000000000000000020000000000000000000800000000000000000000000010000000000000000000000000000000000000000000000000000000000000000000000000000000800000000000000000000004000000000000000000000000000000000000000002000000000000000000000000000000000000000000000000000020000000000000000000000000000000000000000000000000000000000000000400",
      "type": "0x2",
      "transactionHash": "0xb3fc8d8779f8d4d2dd283f7535300775be4f3793ae88639bd3136fd5fa7aead6",
      "transactionIndex": "0x1",
      "blockHash": "0x9a96128ca6db3a4b1266d75cbf78f4a11cb44b16ca055a7742905dccf4c1e2d2",
      "blockNumber": "0xe932133",
      "gasUsed": "0x8541",
      "effectiveGasPrice": "0x1312d00",
      "from": "0xb53d98c60f327a61aa34c29762efd4efd47ba756",
      "to": "0x3253a335e7bffb4790aa4c25c4250d206e9b9773",
      "contractAddress": null,
      "gasUsedForL1": "0x0",
      "l1BlockNumber": "0x9d6093",
      "timeboosted": false
    },
    {
      "status": "0x1",
      "cumulativeGasUsed": "0xb437",
      "logs": [
        {
          "address": "0x3253a335e7bffb4790aa4c25c4250d206e9b9773",
          "topics": [
            "0x8c5be1e5ebec7d5bd14f71427d1e84f3dd0314c0f7b2291e5b200ac8c7c3b925",
            "0x000000000000000000000000b53d98c60f327a61aa34c29762efd4efd47ba756",
            "0x000000000000000000000000555f5ea52732adef6d92db42274be8144b8a3cf4"
          ],
          "data": "0x000000000000000000000000000000000000000000000000000000003b9aca00",
          "blockHash": "0xa872b35b5dec68a89496f20cdaa2da1ea542724e846d7f01105a925346c345ea",
          "blockNumber": "0xe932139",
          "blockTimestamp": "0x699b0ed2",
          "transactionHash": "0x8bba8997fbacfdc0d50d729750d11996aacc0fce23a2316510c4b1e6c24c8ac2",
          "transactionIndex": "0x1",
          "logIndex": "0x0",
          "removed": false
        }
      ],
      "logsBloom": "0x00000000200000020000000000000000000000000000000000000000000000000000000000000000000008000000000000000000000000000000000000200008000000000000000000000000000000000000000000000000000000000000000100000000000000000000000000000000000000000000000000000000000000000000000000000000000000000000000000000000010000000000000000000000020000800000000000000000000004000000000000000000000000000000000000000000000000000000000000000000000000000000000000000000000000000010000000000000000000000000000000000000000000000000000000000400",
      "type": "0x2",
      "transactionHash": "0x8bba8997fbacfdc0d50d729750d11996aacc0fce23a2316510c4b1e6c24c8ac2",
      "transactionIndex": "0x1",
      "blockHash": "0xa872b35b5dec68a89496f20cdaa2da1ea542724e846d7f01105a925346c345ea",
      "blockNumber": "0xe932139",
      "gasUsed": "0xb437",
      "effectiveGasPrice": "0x1318ac0",
      "from": "0xb53d98c60f327a61aa34c29762efd4efd47ba756",
      "to": "0x3253a335e7bffb4790aa4c25c4250d206e9b9773",
      "contractAddress": null,
      "gasUsedForL1": "0x0",
      "l1BlockNumber": "0x9d6093",
      "timeboosted": false
    },
    {
      "status": "0x1",
      "cumulativeGasUsed": "0x19484",
      "logs": [
        {
          "address": "0x3253a335e7bffb4790aa4c25c4250d206e9b9773",
          "topics": [
            "0xddf252ad1be2c89b69c2b068fc378daa952ba7f163c4a11628f55a4df523b3ef",
            "0x000000000000000000000000b53d98c60f327a61aa34c29762efd4efd47ba756",
            "0x000000000000000000000000555f5ea52732adef6d92db42274be8144b8a3cf4"
          ],
          "data": "0x000000000000000000000000000000000000000000000000000000003b9aca00",
          "blockHash": "0x962e4deec152d0188d56cda7ace327bdc172e10a3b5ae9f049de7d20daf90034",
          "blockNumber": "0xe93213e",
          "blockTimestamp": "0x699b0ed4",
          "transactionHash": "0x4be89a6e2ac383dc33a4a70819120788da0adc2a4e42af5f8624576a54afa22c",
          "transactionIndex": "0x1",
          "logIndex": "0x0",
          "removed": false
        },
        {
          "address": "0x3253a335e7bffb4790aa4c25c4250d206e9b9773",
          "topics": [
            "0x8c5be1e5ebec7d5bd14f71427d1e84f3dd0314c0f7b2291e5b200ac8c7c3b925",
            "0x000000000000000000000000b53d98c60f327a61aa34c29762efd4efd47ba756",
            "0x000000000000000000000000555f5ea52732adef6d92db42274be8144b8a3cf4"
          ],
          "data": "0x0000000000000000000000000000000000000000000000000000000000000000",
          "blockHash": "0x962e4deec152d0188d56cda7ace327bdc172e10a3b5ae9f049de7d20daf90034",
          "blockNumber": "0xe93213e",
          "blockTimestamp": "0x699b0ed4",
          "transactionHash": "0x4be89a6e2ac383dc33a4a70819120788da0adc2a4e42af5f8624576a54afa22c",
          "transactionIndex": "0x1",
          "logIndex": "0x1",
          "removed": false
        },
        {
          "address": "0x555f5ea52732adef6d92db42274be8144b8a3cf4",
          "topics": [
            "0x73a19dd210f1a7f902193214c0ee91dd35ee5b4d920cba8d519eca65a7b488ca",
            "0x000000000000000000000000b53d98c60f327a61aa34c29762efd4efd47ba756"
          ],
          "data": "0x000000000000000000000000000000000000000000000000000000003b9aca00000000000000000000000000000000000000000000000000000000003b9aca00",
          "blockHash": "0x962e4deec152d0188d56cda7ace327bdc172e10a3b5ae9f049de7d20daf90034",
          "blockNumber": "0xe93213e",
          "blockTimestamp": "0x699b0ed4",
          "transactionHash": "0x4be89a6e2ac383dc33a4a70819120788da0adc2a4e42af5f8624576a54afa22c",
          "transactionIndex": "0x1",
          "logIndex": "0x2",
          "removed": false
        }
      ],
      "logsBloom": "0x00000000200000020000000000000000000000000000010000000000000000000000000000000000000908000000000000000000000000000000000000200008000000000000000000000008000000000000000000000000000000000000000100080000000000000000000000000000000000000000000000000010000000000000000000000000000000000000000000000000010000000000000000000000020000800000000000000800000004002000000000000000000000000000000000000002000000000000000000000000000000000000000000000000000000000010000000000000000000000000000000000000000000000000000000000400",
      "type": "0x2",
      "transactionHash": "0x4be89a6e2ac383dc33a4a70819120788da0adc2a4e42af5f8624576a54afa22c",
      "transactionIndex": "0x1",
      "blockHash": "0x962e4deec152d0188d56cda7ace327bdc172e10a3b5ae9f049de7d20daf90034",
      "blockNumber": "0xe93213e",
      "gasUsed": "0x19484",
      "effectiveGasPrice": "0x1312d00",
      "from": "0xb53d98c60f327a61aa34c29762efd4efd47ba756",
      "to": "0x555f5ea52732adef6d92db42274be8144b8a3cf4",
      "contractAddress": null,
      "gasUsedForL1": "0x0",
      "l1BlockNumber": "0x9d6093",
      "timeboosted": false
    }
  ],
  "libraries": [],
  "pending": [],
  "returns": {},
  "timestamp": 1771769558144,
  "chain": 421614,
  "commit": null
}